{
  "transactions": [
    {
      "hash": "0x3b92b6297f0ca4dd3488b67168e4fb83aa1c289bca6a794a135c924c55ef4d0f",
      "transactionType": "CALL",
      "contractName": null,
      "contractAddress": "0xB66e0518570eA48286983322fc8F85301f955406",
      "function": "setPeer(uint32,bytes32)",
      "arguments": [
        "40256",
        "0x00000000000000000000000042993d9a691636cbb23c201729b36b5c6e750733"
      ],
      "transaction": {
        "type": "0x02",
        "from": "0xf290f3d843826d00f8176182fd76550535f6dbb4",
        "to": "0xb66e0518570ea48286983322fc8f85301f955406",
        "gas": "0x95ed",
        "value": "0x0",
        "data": "0x3400288b0000000000000000000000000000000000000000000000000000000000009d4000000000000000000000000042993d9a691636cbb23c201729b36b5c6e750733",
        "nonce": "0x13",
        "accessList": []
      },
      "additionalContracts": [],
      "isFixedGasLimit": false
    },
    {
      "hash": "0x7112e3f86daad9c2653319563d200487e9b93d927acf0d35f2f55caf4bdd12c9",
      "transactionType": "CALL",
      "contractName": null,
      "contractAddress": "0x1f9840a85d5aF5bf1D1762F925BDADdC4201F984",
      "function": "approve(address,uint256)",
      "arguments": [
        "0xB66e0518570eA48286983322fc8F85301f955406",
        "100000000000000"
      ],
      "transaction": {
        "type": "0x02",
        "from": "0xf290f3d843826d00f8176182fd76550535f6dbb4",
        "to": "0x1f9840a85d5af5bf1d1762f925bdaddc4201f984",
        "gas": "0x10ba5",
        "value": "0x0",
        "data": "0x095ea7b3000000000000000000000000b66e0518570ea48286983322fc8f85301f95540600000000000000000000000000000000000000000000000000005af3107a4000",
        "nonce": "0x14",
        "accessList": []
      },
      "additionalContracts": [],
      "isFixedGasLimit": false
    },
    {
      "hash": "0x2c0f4d73416e0aea3a00b898a77060d58dfffa33a75ebc2089e13b95b1926560",
      "transactionType": "CALL",
      "contractName": null,
      "contractAddress": "0xB66e0518570eA48286983322fc8F85301f955406",
      "function": "send((uint32,bytes32,uint256,uint256,bytes,bytes,bytes),(uint256,uint256),address)",
      "arguments": [
        "(40256, 0x000000000000000000000000f290f3d843826d00f8176182fd76550535f6dbb4, 100000000000000, 100000000000000, 0x00030100110100000000000000000000000000030d40, 0x, 0x)",
        "(7170711870249, 0)",
        "0xf290f3d843826d00f8176182fd76550535f6dbb4"
      ],
      "transaction": {
        "type": "0x02",
        "from": "0xf290f3d843826d00f8176182fd76550535f6dbb4",
        "to": "0xb66e0518570ea48286983322fc8f85301f955406",
        "gas": "0x5a985",
        "value": "0x6858fbbdb29",
        "data": "0xc7c7f5b30000000000000000000000000000000000000000000000000000000000000080000000000000000000000000000000000000000000000000000006858fbbdb290000000000000000000000000000000000000000000000000000000000000000000000000000000000000000f290f3d843826d00f8176182fd76550535f6dbb40000000000000000000000000000000000000000000000000000000000009d40000000000000000000000000f290f3d843826d00f8176182fd76550535f6dbb400000000000000000000000000000000000000000000000000005af3107a400000000000000000000000000000000000000000000000000000005af3107a400000000000000000000000000000000000000000000000000000000000000000e000000000000000000000000000000000000000000000000000000000000001200000000000000000000000000000000000000000000000000000000000000140000000000000000000000000000000000000000000000000000000000000001600030100110100000000000000000000000000030d400000000000000000000000000000000000000000000000000000000000000000000000000000000000000000000000000000000000000000000000000000000000000000000000000000",
        "nonce": "0x15",
        "accessList": []
      },
      "additionalContracts": [],
      "isFixedGasLimit": false
    }
  ],
  "receipts": [
    {
      "transactionHash": "0x3b92b6297f0ca4dd3488b67168e4fb83aa1c289bca6a794a135c924c55ef4d0f",
      "transactionIndex": "0x17",
      "blockHash": "0xa3b6a07c0a6e66551c4bdf22742ed0977780d864778e60afe6298fba344936e4",
      "blockNumber": "0x545598",
      "from": "0xf290f3d843826d00f8176182fd76550535f6dbb4",
      "to": "0xB66e0518570eA48286983322fc8F85301f955406",
      "cumulativeGasUsed": "0x110b86",
      "gasUsed": "0x6c8c",
      "contractAddress": null,
      "logs": [
        {
          "address": "0xB66e0518570eA48286983322fc8F85301f955406",
          "topics": [
            "0x238399d427b947898edb290f5ff0f9109849b1c3ba196a42e35f00c50a54b98b"
          ],
          "data": "0x0000000000000000000000000000000000000000000000000000000000009d4000000000000000000000000042993d9a691636cbb23c201729b36b5c6e750733",
          "blockHash": "0xa3b6a07c0a6e66551c4bdf22742ed0977780d864778e60afe6298fba344936e4",
          "blockNumber": "0x545598",
          "transactionHash": "0x3b92b6297f0ca4dd3488b67168e4fb83aa1c289bca6a794a135c924c55ef4d0f",
          "transactionIndex": "0x17",
          "logIndex": "0xc",
          "removed": false
        }
      ],
      "status": "0x1",
      "logsBloom": "0x00000000000000000000000000000000000000000000000000000000000000000000000000000000000000000000000000000000000000000800000000000000000000000000000000000000000000000000000000000000000000000000000000000000000000000000000000000000000000000000000000000000000000000000000000000000000000000000000000000000020000000000000000000000100000000000000000000000000000000000000000000000000002000800000000000000000000000000000000000000000000000000000000040000000000000000000000000000000000000000000000000000000000000000000000000000",
      "type": "0x2",
      "effectiveGasPrice": "0xb2d05e0d"
    },
    {
      "transactionHash": "0x7112e3f86daad9c2653319563d200487e9b93d927acf0d35f2f55caf4bdd12c9",
      "transactionIndex": "0x18",
      "blockHash": "0xa3b6a07c0a6e66551c4bdf22742ed0977780d864778e60afe6298fba344936e4",
      "blockNumber": "0x545598",
      "from": "0xf290f3d843826d00f8176182fd76550535f6dbb4",
      "to": "0x1f9840a85d5aF5bf1D1762F925BDADdC4201F984",
      "cumulativeGasUsed": "0x11c288",
      "gasUsed": "0xb702",
      "contractAddress": null,
      "logs": [
        {
          "address": "0x1f9840a85d5aF5bf1D1762F925BDADdC4201F984",
          "topics": [
            "0x8c5be1e5ebec7d5bd14f71427d1e84f3dd0314c0f7b2291e5b200ac8c7c3b925",
            "0x000000000000000000000000f290f3d843826d00f8176182fd76550535f6dbb4",
            "0x000000000000000000000000b66e0518570ea48286983322fc8f85301f955406"
          ],
          "data": "0x00000000000000000000000000000000000000000000000000005af3107a4000",
          "blockHash": "0xa3b6a07c0a6e66551c4bdf22742ed0977780d864778e60afe6298fba344936e4",
          "blockNumber": "0x545598",
          "transactionHash": "0x7112e3f86daad9c2653319563d200487e9b93d927acf0d35f2f55caf4bdd12c9",
          "transactionIndex": "0x18",
          "logIndex": "0xd",
          "removed": false
        }
      ],
      "status": "0x1",
      "logsBloom": "0x00000000000000000000000004000000001000000000000000000000000000000000000000000000000000000000001004000000000000000000000000200000000000000000000000000000100000000000000000000000000000000000000008000000000000000000001000000000000000000000000000000000000000000000000000000000000000000000000000000000000000000000000000000000020000000000000000000000000000000000000000000000100000000000000000000000000000000000000000000000000000000000000000000000000000000010000000000000000000000000000000000000000000000000100000000000",
      "type": "0x2",
      "effectiveGasPrice": "0xb2d05e0d"
    },
    {
      "transactionHash": "0x2c0f4d73416e0aea3a00b898a77060d58dfffa33a75ebc2089e13b95b1926560",
      "transactionIndex": "0x19",
      "blockHash": "0xa3b6a07c0a6e66551c4bdf22742ed0977780d864778e60afe6298fba344936e4",
      "blockNumber": "0x545598",
      "from": "0xf290f3d843826d00f8176182fd76550535f6dbb4",
      "to": "0xB66e0518570eA48286983322fc8F85301f955406",
      "cumulativeGasUsed": "0x15dbf6",
      "gasUsed": "0x4196e",
      "contractAddress": null,
      "logs": [
        {
          "address": "0x1f9840a85d5aF5bf1D1762F925BDADdC4201F984",
          "topics": [
            "0x8c5be1e5ebec7d5bd14f71427d1e84f3dd0314c0f7b2291e5b200ac8c7c3b925",
            "0x000000000000000000000000f290f3d843826d00f8176182fd76550535f6dbb4",
            "0x000000000000000000000000b66e0518570ea48286983322fc8f85301f955406"
          ],
          "data": "0x0000000000000000000000000000000000000000000000000000000000000000",
          "blockHash": "0xa3b6a07c0a6e66551c4bdf22742ed0977780d864778e60afe6298fba344936e4",
          "blockNumber": "0x545598",
          "transactionHash": "0x2c0f4d73416e0aea3a00b898a77060d58dfffa33a75ebc2089e13b95b1926560",
          "transactionIndex": "0x19",
          "logIndex": "0xe",
          "removed": false
        },
        {
          "address": "0x1f9840a85d5aF5bf1D1762F925BDADdC4201F984",
          "topics": [
            "0xddf252ad1be2c89b69c2b068fc378daa952ba7f163c4a11628f55a4df523b3ef",
            "0x000000000000000000000000f290f3d843826d00f8176182fd76550535f6dbb4",
            "0x000000000000000000000000b66e0518570ea48286983322fc8f85301f955406"
          ],
          "data": "0x00000000000000000000000000000000000000000000000000005af3107a4000",
          "blockHash": "0xa3b6a07c0a6e66551c4bdf22742ed0977780d864778e60afe6298fba344936e4",
          "blockNumber": "0x545598",
          "transactionHash": "0x2c0f4d73416e0aea3a00b898a77060d58dfffa33a75ebc2089e13b95b1926560",
          "transactionIndex": "0x19",
          "logIndex": "0xf",
          "removed": false
        },
        {
          "address": "0xcc1ae8Cf5D3904Cef3360A9532B477529b177cCE",
          "topics": [
            "0x61ed099e74a97a1d7f8bb0952a88ca8b7b8ebd00c126ea04671f92a81213318a"
          ],
          "data": "0x000000000000000000000000718b92b5cb0a5552039b593faf724d182a881eda0000000000000000000000000000000000000000000000000000037c8b60fddb",
          "blockHash": "0xa3b6a07c0a6e66551c4bdf22742ed0977780d864778e60afe6298fba344936e4",
          "blockNumber": "0x545598",
          "transactionHash": "0x2c0f4d73416e0aea3a00b898a77060d58dfffa33a75ebc2089e13b95b1926560",
          "transactionIndex": "0x19",
          "logIndex": "0x10",
          "removed": false
        },
        {
          "address": "0xcc1ae8Cf5D3904Cef3360A9532B477529b177cCE",
          "topics": [
            "0x07ea52d82345d6e838192107d8fd7123d9c2ec8e916cd0aad13fd2b60db24644"
          ],
          "data": "0x000000000000000000000000000000000000000000000000000000000000006000000000000000000000000000000000000000000000000000000000000000a000000000000000000000000000000000000000000000000000000000000000c000000000000000000000000000000000000000000000000000000000000000010000000000000000000000008eebf8b423b73bfca51a1db4b7354aa0bfca91930000000000000000000000000000000000000000000000000000000000000000000000000000000000000000000000000000000000000000000000000000000100000000000000000000000000000000000000000000000000000309045add4e",
          "blockHash": "0xa3b6a07c0a6e66551c4bdf22742ed0977780d864778e60afe6298fba344936e4",
          "blockNumber": "0x545598",
          "transactionHash": "0x2c0f4d73416e0aea3a00b898a77060d58dfffa33a75ebc2089e13b95b1926560",
          "transactionIndex": "0x19",
          "logIndex": "0x11",
          "removed": false
        },
        {
          "address": "0x6EDCE65403992e310A62460808c4b910D972f10f",
          "topics": [
            "0x1ab700d4ced0c005b164c0f789fd09fcbb0156d4c2041b8a3bfbcd961cd1567f"
          ],
          "data": "0x00000000000000000000000000000000000000000000000000000000000000600000000000000000000000000000000000000000000000000000000000000120000000000000000000000000cc1ae8cf5d3904cef3360a9532b477529b177cce000000000000000000000000000000000000000000000000000000000000009901000000000000000100009ce1000000000000000000000000b66e0518570ea48286983322fc8f85301f95540600009d4000000000000000000000000042993d9a691636cbb23c201729b36b5c6e750733b3720382ad5e7a4963a146a410bb0e85a5e4d202c18e5327d4db63dba01cca8a000000000000000000000000f290f3d843826d00f8176182fd76550535f6dbb4000000000000006400000000000000000000000000000000000000000000000000000000000000000000000000001600030100110100000000000000000000000000030d4000000000000000000000",
          "blockHash": "0xa3b6a07c0a6e66551c4bdf22742ed0977780d864778e60afe6298fba344936e4",
          "blockNumber": "0x545598",
          "transactionHash": "0x2c0f4d73416e0aea3a00b898a77060d58dfffa33a75ebc2089e13b95b1926560",
          "transactionIndex": "0x19",
          "logIndex": "0x12",
          "removed": false
        },
        {
          "address": "0xB66e0518570eA48286983322fc8F85301f955406",
          "topics": [
            "0x85496b760a4b7f8d66384b9df21b381f5d1b1e79f229a47aaf4c232edc2fe59a",
            "0xb3720382ad5e7a4963a146a410bb0e85a5e4d202c18e5327d4db63dba01cca8a",
            "0x000000000000000000000000f290f3d843826d00f8176182fd76550535f6dbb4"
          ],
          "data": "0x0000000000000000000000000000000000000000000000000000000000009d4000000000000000000000000000000000000000000000000000005af3107a400000000000000000000000000000000000000000000000000000005af3107a4000",
          "blockHash": "0xa3b6a07c0a6e66551c4bdf22742ed0977780d864778e60afe6298fba344936e4",
          "blockNumber": "0x545598",
          "transactionHash": "0x2c0f4d73416e0aea3a00b898a77060d58dfffa33a75ebc2089e13b95b1926560",
          "transactionIndex": "0x19",
          "logIndex": "0x13",
          "removed": false
        }
      ],
      "status": "0x1",
      "logsBloom": "0x00000000000000000000000004000000001000000000000000000000000100000000000000000000200000000000001004000000000000000000000000200010000002000000000000000008100000000000000000000000000000000000000008000000000000008200001000000400000000000000000000000010000000000000000000000020000000080000000000000000020000000000000000000000120000008000000000100000000000000000000000400000100440000800000000000002000000000000000084000000000000080000000000000000000000000010040000000000000000000000002000000000008000000000100000000020",
      "type": "0x2",
      "effectiveGasPrice": "0xb2d05e0d"
    }
  ],
  "libraries": [],
  "pending": [],
  "returns": {},
  "timestamp": 1710972057,
  "chain": 11155111,
  "commit": "c3772db"
}